:100000000C9434000C9449000C9449000C94490061
:100010000C9449000C9449000C9449000C9449003C
:100020000C9449000C9449000C9449000C9449002C
:100030000C9449000C9449000C9449000C9449001C
:100040000C9449000C9449000C9449000C9449000C
:100050000C9449000C9449000C9449000C944900FC
:100060000C9449000C94490011241FBECFEFD8E036
:10007000DEBFCDBF11E0A0E0B1E0EAE9F7E002C0E9
:1000800005900D92A234B107D9F70E9433010C9468
:10009000C4030C9400006F927F928F929F92AF9254
:1000A000BF92CF92DF92EF92FF920F931F93CF9365
:1000B000DF9300D00F92CDB7DEB739014A01580166
:1000C000C982DA82EB829B01AC0160E070E080E8DB
:1000D0009FE30E94F70120E034E244E759E40E94E4
:1000E00051036B017C019301A4010E9451030E9402
:1000F0006902462F572F8A01BA01550F880B990BB9
:100100000E94A1029B01AC01B601C7010E948501BA
:100110000E9469024B019601A70160E070E08AEF3E
:1001200094E40E94F7016B017C01B501BB0C880BC4
:10013000990B0E94A1029B01AC01B601C7010E946C
:1001400051033B015C01E12CF12CCC24C394D12C54
:10015000B7010F2C000C880B990B0E94A102930190
:10016000A5010E94F20187FD12C00F900F900F9021
:10017000DF91CF911F910F91FF90EF90DF90CF9083
:10018000BF90AF909F908F907F906F9008952B813C
:10019000E981FA818081A60102C0440F551F2A958A
:1001A000E2F7842B808380E090E080179107ACF029
:1001B00080812B81A60102C0440F551F2A95E2F7CA
:1001C0009A0120952823208380E090E088159905E6
:1001D00054F08FEFE81AF80ABBCF55E05A95F1F7C3
:1001E00000000196E2CF55E05A95F1F70000019624
:1001F000EDCFDC0161546730A8F5E62FF0E0EA535B
:10020000FC4F0C94BE036D917D918D919C9108954E
:1002100014966D917D918D919C91179708951896E4
:100220006D917D918D919C911B9708951C966D9178
:100230007D918D919C911F97089550966D917D9120
:100240008D919C915397089554966D917D918D91C8
:100250009C915797089558966D917D918D919C91A1
:100260005B9708950895CDB7DEB7EB970FB6F89476
:10027000DEBF0FBECDBF579A389A8CE1E6E0F1E0C1
:10028000DE01909601900D928A95E1F72FE1E2E26E
:10029000F1E0CE010196DC0101900D922A95E1F783
:1002A000F82E792E4E0120E2820E911C682C592CDA
:1002B000AF2CB72CF50161915F01862D952D0E9421
:1002C000F900C0900301D0900401E090050104E61C
:1002D00010E02DEC3CEC4CEC5DE30E944B00FFEF9A
:1002E00021EE84E0F15020408040E1F700C00000A2
:1002F000A814B904F9F69FEFE9E6F8E19150E0405F
:10030000F040E1F700C00000D3CF5058BB27AA2728
:100310000E949D010C9417030E94090338F00E946B
:10032000100320F039F49F3F19F426F40C940603CF
:100330000EF4E095E7FB0C940003E92F0E942803DC
:1003400058F3BA17620773078407950720F079F40A
:10035000A6F50C944A030EF4E0950B2EBA2FA02DAF
:100360000B01B90190010C01CA01A0011124FF2762
:10037000591B99F0593F50F4503E68F11A16F0405D
:10038000A22F232F342F4427585FF3CF469537955C
:100390002795A795F0405395C9F77EF41F16BA0B21
:1003A000620B730B840BBAF09150A1F0FF0FBB1FCF
:1003B000661F771F881FC2F70EC0BA0F621F731F18
:1003C000841F48F4879577956795B795F7959E3F75
:1003D00008F0B0CF9395880F08F09927EE0F979506
:1003E000879508950E94DC0208F481E008950E9438
:1003F0000B020C9417030E94100358F00E9409038B
:1004000040F029F45F3F29F00C94000351110C9443
:100410004B030C9406030E94280368F39923B1F35D
:10042000552391F3951B550BBB27AA27621773071A
:10043000840738F09F5F5F4F220F331F441FAA1FAE
:10044000A9F335D00E2E3AF0E0E832D0915050406A
:10045000E695001CCAF72BD0FE2F29D0660F771F18
:10046000881FBB1F261737074807AB07B0E809F0FE
:10047000BB0B802DBF01FF2793585F4F3AF09E3F83
:10048000510578F00C9400030C944B035F3FE4F3A8
:10049000983ED4F3869577956795B795F7959F5FC6
:1004A000C9F7880F911D9695879597F90895E1E012
:1004B000660F771F881FBB1F621773078407BA0771
:1004C00020F0621B730B840BBA0BEE1F88F7E095CC
:1004D00008950E9470026894B1110C944B03089522
:1004E0000E94300388F09F5798F0B92F9927B75191
:1004F000B0F0E1F0660F771F881F991F1AF0BA95C8
:10050000C9F714C0B13091F00E944A03B1E00895D8
:100510000C944A03672F782F8827B85F39F0B93FCA
:10052000CCF3869577956795B395D9F73EF490957A
:100530008095709561957F4F8F4F9F4F0895E894F8
:1005400009C097FB3EF490958095709561957F4F1B
:100550008F4F9F4F9923A9F0F92F96E9BB279395C9
:10056000F695879577956795B795F111F8CFFAF4D9
:10057000BB0F11F460FF1BC06F5F7F4F8F4F9F4F0A
:1005800016C0882311F096E911C0772321F09EE868
:10059000872F762F05C0662371F096E8862F70E0CE
:1005A00060E02AF09A95660F771F881FDAF7880FA8
:1005B0009695879597F90895990F0008550FAA0BFE
:1005C000E0E8FEEF16161706E807F907C0F0121666
:1005D0001306E407F50798F0621B730B840B950B69
:1005E00039F40A2661F0232B242B252B21F40895BE
:1005F0000A2609F4A140A6958FEF811D811D08955B
:1006000097F99F6780E870E060E008959FEF80ECC5
:10061000089500240A941616170618060906089568
:1006200000240A9412161306140605060895092ECE
:100630000394000C11F4882352F0BB0F40F4BF2B3D
:1006400011F460FF04C06F5F7F4F8F4F9F4F08957D
:1006500057FD9058440F551F59F05F3F71F0479573
:10066000880F97FB991F61F09F3F79F08795089558
:10067000121613061406551FF2CF4695F1DF08C077
:10068000161617061806991FF1CF86957105610594
:1006900008940895E894BB2766277727CB0197F93C
:1006A00008950E9464030C9417030E94090338F014
:1006B0000E94100320F0952311F00C9400030C9479
:1006C000060311240C944B030E94280370F3959F9A
:1006D000C1F3950F50E0551F629FF001729FBB2739
:1006E000F00DB11D639FAA27F00DB11DAA1F649FD5
:1006F0006627B00DA11D661F829F2227B00DA11D88
:10070000621F739FB00DA11D621F839FA00D611D0D
:10071000221F749F3327A00D611D231F849F600D2E
:10072000211D822F762F6A2F11249F5750409AF057
:10073000F1F088234AF0EE0FFF1FBB1F661F771FE3
:10074000881F91505040A9F79E3F510580F00C94AE
:1007500000030C944B035F3FE4F3983ED4F386957B
:1007600077956795B795F795E7959F5FC1F7FE2B4E
:10077000880F911D9695879597F90895EE0FFF1FA5
:100780000590F491E02D0994F894FFCF24012B01FA
:0A079000030108010F0116011D010D
:10079A002B000728000000D002441FD51244A4D021
:1007AA002444719D2E445CFF434400005C4448F19C
:1007BA0076444545464747464544434344454544B0
:1007CA0044454546474746454443434445444343D5
:0207DA0000001D
:00000001FF
