:100000000C94B1000C94C6000C94C6000C94C6006D
:100010000C94C6000C94C6000C94C6000C94C60048
:100020000C94C6000C94C6000C94C6000C94C60038
:100030000C94C6000C94C6000C94C6000C94C60028
:100040000C94C6000C94C6000C94C6000C94C60018
:100050000C94C6000C94C6000C94C6000C94C60008
:100060000C94C6000C94C60000407A10F35A00A00D
:10007000724E18090010A5D4E80000E87648170071
:1000800000E40B54020000CA9A3B000000E1F505B1
:10009000000080969800000040420F000000A086FB
:1000A00001000000102700000000E803000000002D
:1000B0006400000000000A000000000001000000D1
:1000C00000002C76D888DC674F0823DFC1DFAE59EB
:1000D000E1B1B796E5E3E453C63AE651997696E87E
:1000E000E6C28426EB898C9B62ED407C6FFCEFBC02
:1000F0009C9F40F2BAA56FA5F490055A2AF75C932D
:100100006B6CF9676DC11BFCE0E40D47FEF520E662
:10011000B500D0ED902E0300943577050080841E45
:10012000080000204E0A000000C80C333333330FA0
:10013000986E12831141EF8D2114893BE65516CF3D
:10014000FEE6DB18D1844B381BF77C1D901DA4BB49
:10015000E424203284725E228100C9F124ECA1E5FE
:100160003D2711241FBECFEFD8E0DEBFCDBF11E089
:10017000A0E0B1E0E8ECF9E002C005900D92A830F3
:10018000B107D9F70E94F2000C94E2040C9400002D
:100190009093C5008093C40088E18093C1008EE0F5
:1001A0008093C20008959091C00095FFFCCF80938A
:1001B000C6000895CF93DF93EC018991811103C0AC
:1001C000DF91CF9108950E94D300F7CF4E9BFECFD1
:1001D00060E070E0CB014E9B08956F5F7F4F8F4FC3
:1001E0009F4FF9CF00D000D000D00F92CDB7DEB72F
:1001F00087E690E00E94C800579A56985398259A2F
:100200002D982FEF3DE282E2215030408040E1F70F
:1002100000C00000FF24F39480E2E82E89B19FEF34
:1002200021EE34E0915020403040E1F700C0000062
:1002300099B1987083FB882780F98F25981303C0A4
:1002400085B18E2585B95F988AE08A95F1F700C05F
:100250005F9A95E39A95F1F700005F980E94E60097
:100260000E94640126E933E44BE05DE30E949F01B4
:1002700020E030E040E05FE30E949F011D9912C042
:100280008E010F5F1F4F23E047E00E945D0280E078
:1002900091E00E94DA00C8010E94DA008AE00E9420
:1002A000D300BCCF2CE033E949EC5EE30E949F0110
:1002B0008E010F5F1F4F23E047E00E945D0284E044
:1002C00091E0E7CFE89409C097FB3EF490958095C4
:1002D000709561957F4F8F4F9F4F9923A9F0F92F0C
:1002E00096E9BB279395F695879577956795B7958A
:1002F000F111F8CFFAF4BB0F11F460FF1BC06F5F70
:100300007F4F8F4F9F4F16C0882311F096E911C081
:10031000772321F09EE8872F762F05C0662371F0A2
:1003200096E8862F70E060E02AF09A95660F771FB6
:10033000881FDAF7880F9695879597F908950E9498
:10034000B2010C9423020E94150238F00E941C0294
:1003500020F0952311F00C940C020C94120211243D
:100360000C9457020E94340270F3959FC1F3950FCD
:1003700050E0551F629FF001729FBB27F00DB11D29
:10038000639FAA27F00DB11DAA1F649F6627B00DB9
:10039000A11D661F829F2227B00DA11D621F739FA2
:1003A000B00DA11D621F839FA00D611D221F749FB0
:1003B0003327A00D611D231F849F600D211D822FF7
:1003C000762F6A2F11249F5750409AF0F1F088231E
:1003D0004AF0EE0FFF1FBB1F661F771F881F91504B
:1003E0005040A9F79E3F510580F00C940C020C94EC
:1003F00057025F3FE4F3983ED4F38695779567956F
:10040000B795F795E7959F5FC1F7FE2B880F911D74
:100410009695879597F9089597F99F6780E870E01A
:1004200060E008959FEF80EC089500240A9416166A
:10043000170618060906089500240A9412161306D2
:10044000140605060895092E0394000C11F4882360
:1004500052F0BB0F40F4BF2B11F460FF04C06F5F7C
:100460007F4F8F4F9F4F089557FD9058440F551F52
:1004700059F05F3F71F04795880F97FB991F61F026
:100480009F3F79F087950895121613061406551F9D
:10049000F2CF4695F1DF08C0161617061806991F09
:1004A000F1CF86957105610508940895E894BB27FE
:1004B00066277727CB0197F90895EF920F931F9343
:1004C000CF93A62FF72FE82F392F822FC02F94E13B
:1004D00047FF94E0242F27FD2195E92E082F4C2F6C
:1004E000512F6A2F7F2F8E2F932F0E947E028C2FE9
:1004F000912FCF911F910F91EF900895A9E0B0E057
:10050000E4E8F2E00C94AB04A62FF72FE82F392F84
:100510006A01F22E402E2E2C4CE3041708F00BE358
:1005200055245394500E052D27E0AE014F5F5F4FC9
:100530006A2F7F2F8E2F932F0E94CC034C010981AD
:10054000802F89701DE2813041F01BE221FC05C043
:10055000122D11701295110F107E902F9870522D40
:100560005071352E9115E9F184E0111101C083E03D
:100570008F15A8F5F81A31100BC0EF2CF12CA7013C
:1005800060E270E0C6010E94A404CE0CDF1CF12CD6
:10059000111519F0F60111936F0186010D5F1F4FC0
:1005A00091E68EE622FE02C091E48EE4D6018C93A1
:1005B00011969C93119712968C93EF2CF12CA70116
:1005C00060E270E0C8010E94A404F801EE0DFF1D76
:1005D00010828EEF9FEF2996E2E10C94C704F12C74
:1005E000CACF02FF36C084E0111101C083E08F152D
:1005F00010F49F2D981B31100BC0E92EF12CA70190
:1006000060E270E0C6010E94A404CE0CDF1C90E002
:10061000111519F0F60111936F017601B3E0EB0E9D
:10062000F11C39E62EE686E622FE03C039E42EE40C
:1006300086E4F601308321838283092F10E0A8012C
:1006400060E270E0C7010E94A404F701E00FF11F0F
:10065000BFCF540197FE02C0A12CB12C21E030E0A5
:10066000111102C020E030E0C5010196820F931FF6
:10067000642C712C93012F5F3F4F411002C020E08A
:1006800030E0820F931F8F159105F4F4F81A822D34
:10069000887181111BC0EF2CF12CA70160E270E082
:1006A000C6010E94A404CE0CDF1CF12C111110C055
:1006B000EF2CF12CA70160E370E0C6010E94A404B6
:1006C000CE0CDF1CF12C09C0F12CE1CF111519F073
:1006D000F60111936F01311459F3580C2A81802FC0
:1006E0008071811519F0213309F45A9401E0151431
:1006F00024F4052D093008F008E0F401EA19FB099B
:1007000041E050E04C0F5D1FE40FF51FA401401BBA
:1007100051097194619471083EE28A149B04F4F0CB
:100720004A155B05DCF49181B1E0AB1AB1082601F2
:100730006FEF461A560A3196A614B7048CF0D6010C
:100740009C93BFEFAB16BB0639F4260162E0460E60
:10075000511CD60111963C936201DFCF90E3E4CFA8
:100760008A149B0431F42633A8F4253311F481153F
:1007700089F0F6019083EF2CF12CA70160E270E084
:10078000C2010E94A404F201EE0DFF1D108280E060
:1007900090E021CF91E3EDCF283008F027E0332718
:1007A000DA01990F311D87FD916000966105710591
:1007B00039F432602E5F3D9330E32A95E1F70895D6
:1007C0009F3F30F080387105610509F03C5F3C5F68
:1007D0003D93913008F08068911DDF93CF931F9374
:1007E0000F93FF92EF92192F987F9695E92F969588
:1007F0009695E90FFF27EE53FF4F99273327EE24F5
:10080000FF24A701E70105900894079428F4360F08
:10081000E71EF81E491F511D660F771F881F991F7D
:100820000694A1F70590079428F4E70EF81E491FD7
:10083000561FC11D770F881F991F661F0694A1F7C9
:100840000590079428F4F80E491F561FC71FD11DA5
:10085000880F991F661F771F0694A1F705900794CC
:1008600020F4490F561FC71FD81F990F661F771F07
:10087000881F0694A9F784911095177041F0D695BA
:10088000C79557954795F794E7941A95C1F7E8E609
:10089000F0E06894159015913591659195910590CA
:1008A0007FE27395E118F10A430B560BC90BD0098F
:1008B000C0F7E10CF11E431F561FC91FD01D7EF467
:1008C000703311F48A95E6CFE894015030F0080FA8
:1008D0000AF40027021708F4202F2395022F7A33F9
:1008E00028F079E37D932A95E9F710C07D932A9546
:1008F00089F6069497956795379517951794E1189B
:10090000F10A430B560BC90BD00998F023957E9141
:1009100073957A3308F070E37C932013B8F77E91D7
:1009200070617D9330F0839571E37D9370E32A9538
:10093000E1F71124EF90FF900F911F91CF91DF917C
:10094000992787FD90950895DC0101C06D93415072
:100950005040E0F708952F923F924F925F926F922E
:100960007F928F929F92AF92BF92CF92DF92EF923F
:10097000FF920F931F93CF93DF93CDB7DEB7CA1BC0
:10098000DB0B0FB6F894DEBF0FBECDBF09942A88EB
:10099000398848885F846E847D848C849B84AA8493
:1009A000B984C884DF80EE80FD800C811B81AA8120
:1009B000B981CE0FD11D0FB6F894DEBF0FBECDBFEB
:0809C000ED010895F894FFCF4A
:0809C8003E613A003E623A0074
:00000001FF
